{
  "address": "0x0F9Dc3722987Bbd8aA94241999a712e4B9fB99dc",
  "abi": [
    {
      "inputs": [
        {
          "internalType": "address",
          "name": "_coordinator",
          "type": "address"
        }
      ],
      "stateMutability": "nonpayable",
      "type": "constructor"
    },
    {
      "inputs": [
        {
          "internalType": "address",
          "name": "have",
          "type": "address"
        },
        {
          "internalType": "address",
          "name": "want",
          "type": "address"
        }
      ],
      "name": "OnlyCoordinatorCanFulfill",
      "type": "error"
    },
    {
      "inputs": [
        {
          "internalType": "address",
          "name": "owner",
          "type": "address"
        }
      ],
      "name": "OwnableInvalidOwner",
      "type": "error"
    },
    {
      "inputs": [
        {
          "internalType": "address",
          "name": "account",
          "type": "address"
        }
      ],
      "name": "OwnableUnauthorizedAccount",
      "type": "error"
    },
    {
      "anonymous": false,
      "inputs": [
        {
          "indexed": true,
          "internalType": "uint256",
          "name": "requestId",
          "type": "uint256"
        }
      ],
      "name": "DataRequestedBool",
      "type": "event"
    },
    {
      "anonymous": false,
      "inputs": [
        {
          "indexed": true,
          "internalType": "uint256",
          "name": "requestId",
          "type": "uint256"
        }
      ],
      "name": "DataRequestedBytes",
      "type": "event"
    },
    {
      "anonymous": false,
      "inputs": [
        {
          "indexed": true,
          "internalType": "uint256",
          "name": "requestId",
          "type": "uint256"
        }
      ],
      "name": "DataRequestedBytes32",
      "type": "event"
    },
    {
      "anonymous": false,
      "inputs": [
        {
          "indexed": true,
          "internalType": "uint256",
          "name": "requestId",
          "type": "uint256"
        }
      ],
      "name": "DataRequestedStringAndBool",
      "type": "event"
    },
    {
      "anonymous": false,
      "inputs": [
        {
          "indexed": true,
          "internalType": "uint256",
          "name": "requestId",
          "type": "uint256"
        }
      ],
      "name": "DataRequestedUint256",
      "type": "event"
    },
    {
      "anonymous": false,
      "inputs": [
        {
          "indexed": true,
          "internalType": "address",
          "name": "previousOwner",
          "type": "address"
        },
        {
          "indexed": true,
          "internalType": "address",
          "name": "newOwner",
          "type": "address"
        }
      ],
      "name": "OwnershipTransferred",
      "type": "event"
    },
    {
      "inputs": [],
      "name": "COORDINATOR",
      "outputs": [
        {
          "internalType": "contract IADCSCoordinator",
          "name": "",
          "type": "address"
        }
      ],
      "stateMutability": "view",
      "type": "function"
    },
    {
      "inputs": [],
      "name": "lastBool",
      "outputs": [
        {
          "internalType": "bool",
          "name": "",
          "type": "bool"
        }
      ],
      "stateMutability": "view",
      "type": "function"
    },
    {
      "inputs": [],
      "name": "lastBytes",
      "outputs": [
        {
          "internalType": "bytes",
          "name": "",
          "type": "bytes"
        }
      ],
      "stateMutability": "view",
      "type": "function"
    },
    {
      "inputs": [],
      "name": "lastBytes32",
      "outputs": [
        {
          "internalType": "bytes32",
          "name": "",
          "type": "bytes32"
        }
      ],
      "stateMutability": "view",
      "type": "function"
    },
    {
      "inputs": [],
      "name": "lastUint256",
      "outputs": [
        {
          "internalType": "uint256",
          "name": "",
          "type": "uint256"
        }
      ],
      "stateMutability": "view",
      "type": "function"
    },
    {
      "inputs": [],
      "name": "lastestMemeCoin",
      "outputs": [
        {
          "internalType": "string",
          "name": "name",
          "type": "string"
        },
        {
          "internalType": "bool",
          "name": "response",
          "type": "bool"
        }
      ],
      "stateMutability": "view",
      "type": "function"
    },
    {
      "inputs": [],
      "name": "owner",
      "outputs": [
        {
          "internalType": "address",
          "name": "",
          "type": "address"
        }
      ],
      "stateMutability": "view",
      "type": "function"
    },
    {
      "inputs": [
        {
          "internalType": "uint256",
          "name": "requestId",
          "type": "uint256"
        },
        {
          "components": [
            {
              "internalType": "string",
              "name": "name",
              "type": "string"
            },
            {
              "internalType": "bool",
              "name": "response",
              "type": "bool"
            }
          ],
          "internalType": "struct ADCSConsumerBase.StringAndBool",
          "name": "response",
          "type": "tuple"
        }
      ],
      "name": "rawFulfillDataRequest",
      "outputs": [],
      "stateMutability": "nonpayable",
      "type": "function"
    },
    {
      "inputs": [
        {
          "internalType": "uint256",
          "name": "requestId",
          "type": "uint256"
        },
        {
          "internalType": "bytes",
          "name": "response",
          "type": "bytes"
        }
      ],
      "name": "rawFulfillDataRequest",
      "outputs": [],
      "stateMutability": "nonpayable",
      "type": "function"
    },
    {
      "inputs": [
        {
          "internalType": "uint256",
          "name": "requestId",
          "type": "uint256"
        },
        {
          "internalType": "uint256",
          "name": "response",
          "type": "uint256"
        }
      ],
      "name": "rawFulfillDataRequest",
      "outputs": [],
      "stateMutability": "nonpayable",
      "type": "function"
    },
    {
      "inputs": [
        {
          "internalType": "uint256",
          "name": "requestId",
          "type": "uint256"
        },
        {
          "internalType": "bool",
          "name": "response",
          "type": "bool"
        }
      ],
      "name": "rawFulfillDataRequest",
      "outputs": [],
      "stateMutability": "nonpayable",
      "type": "function"
    },
    {
      "inputs": [
        {
          "internalType": "uint256",
          "name": "requestId",
          "type": "uint256"
        },
        {
          "internalType": "bytes32",
          "name": "response",
          "type": "bytes32"
        }
      ],
      "name": "rawFulfillDataRequest",
      "outputs": [],
      "stateMutability": "nonpayable",
      "type": "function"
    },
    {
      "inputs": [],
      "name": "renounceOwnership",
      "outputs": [],
      "stateMutability": "nonpayable",
      "type": "function"
    },
    {
      "inputs": [
        {
          "internalType": "uint32",
          "name": "_callbackGasLimit",
          "type": "uint32"
        },
        {
          "internalType": "bytes32",
          "name": "_jobId",
          "type": "bytes32"
        }
      ],
      "name": "requestBoolData",
      "outputs": [
        {
          "internalType": "uint256",
          "name": "requestId",
          "type": "uint256"
        }
      ],
      "stateMutability": "nonpayable",
      "type": "function"
    },
    {
      "inputs": [
        {
          "internalType": "uint32",
          "name": "_callbackGasLimit",
          "type": "uint32"
        },
        {
          "internalType": "bytes32",
          "name": "_jobId",
          "type": "bytes32"
        }
      ],
      "name": "requestBytes32Data",
      "outputs": [
        {
          "internalType": "uint256",
          "name": "requestId",
          "type": "uint256"
        }
      ],
      "stateMutability": "nonpayable",
      "type": "function"
    },
    {
      "inputs": [
        {
          "internalType": "uint32",
          "name": "_callbackGasLimit",
          "type": "uint32"
        },
        {
          "internalType": "bytes32",
          "name": "_jobId",
          "type": "bytes32"
        }
      ],
      "name": "requestBytesData",
      "outputs": [
        {
          "internalType": "uint256",
          "name": "requestId",
          "type": "uint256"
        }
      ],
      "stateMutability": "nonpayable",
      "type": "function"
    },
    {
      "inputs": [
        {
          "internalType": "uint32",
          "name": "_callbackGasLimit",
          "type": "uint32"
        },
        {
          "internalType": "bytes32",
          "name": "_jobId",
          "type": "bytes32"
        }
      ],
      "name": "requestMemeData",
      "outputs": [
        {
          "internalType": "uint256",
          "name": "requestId",
          "type": "uint256"
        }
      ],
      "stateMutability": "nonpayable",
      "type": "function"
    },
    {
      "inputs": [
        {
          "internalType": "uint32",
          "name": "_callbackGasLimit",
          "type": "uint32"
        },
        {
          "internalType": "bytes32",
          "name": "_jobId",
          "type": "bytes32"
        },
        {
          "internalType": "string",
          "name": "_from",
          "type": "string"
        },
        {
          "internalType": "string",
          "name": "_to",
          "type": "string"
        }
      ],
      "name": "requestUint256Data",
      "outputs": [
        {
          "internalType": "uint256",
          "name": "requestId",
          "type": "uint256"
        }
      ],
      "stateMutability": "nonpayable",
      "type": "function"
    },
    {
      "inputs": [
        {
          "internalType": "address",
          "name": "newOwner",
          "type": "address"
        }
      ],
      "name": "transferOwnership",
      "outputs": [],
      "stateMutability": "nonpayable",
      "type": "function"
    }
  ],
  "transactionHash": "0xedf322d2debb0c7a15c5a96178da9ab110c5c4c5db7f801597e1a60ede037d36",
  "args": [
    "0x07811b8B6151db734b8D1568918d3A62607879a7"
  ],
  "numDeployments": 2,
  "solcInputHash": "b4ef333f67e2df07c4b7518f857ceb1e",
  "bytecode": "0x60a06040523480156200001157600080fd5b506040516200317d3803806200317d83398181016040528101906200003791906200040a565b62000047620002d260201b60201c565b818073ffffffffffffffffffffffffffffffffffffffff1660808173ffffffffffffffffffffffffffffffffffffffff168152505063e9d3462860e01b600080604051602001620000989062000497565b60405160208183030381529060405280519060200120815260200190815260200160002060006101000a81548163ffffffff021916908360e01c0217905550634b9c308360e01b600080604051602001620000f390620004fe565b60405160208183030381529060405280519060200120815260200190815260200160002060006101000a81548163ffffffff021916908360e01c0217905550631228cabf60e01b6000806040516020016200014e9062000565565b60405160208183030381529060405280519060200120815260200190815260200160002060006101000a81548163ffffffff021916908360e01c02179055506329ba70c460e01b600080604051602001620001a990620005cc565b60405160208183030381529060405280519060200120815260200190815260200160002060006101000a81548163ffffffff021916908360e01c0217905550632f44d44960e01b600080604051602001620002049062000633565b60405160208183030381529060405280519060200120815260200190815260200160002060006101000a81548163ffffffff021916908360e01c021790555050600073ffffffffffffffffffffffffffffffffffffffff168173ffffffffffffffffffffffffffffffffffffffff1603620002b95760006040517f1e4fbdf7000000000000000000000000000000000000000000000000000000008152600401620002b091906200065b565b60405180910390fd5b620002ca81620002da60201b60201c565b505062000678565b600033905090565b6000600160009054906101000a900473ffffffffffffffffffffffffffffffffffffffff16905081600160006101000a81548173ffffffffffffffffffffffffffffffffffffffff021916908373ffffffffffffffffffffffffffffffffffffffff1602179055508173ffffffffffffffffffffffffffffffffffffffff168173ffffffffffffffffffffffffffffffffffffffff167f8be0079c531659141344cd1fd0a4f28419497f9722a3daafe3b4186f6b6457e060405160405180910390a35050565b600080fd5b600073ffffffffffffffffffffffffffffffffffffffff82169050919050565b6000620003d282620003a5565b9050919050565b620003e481620003c5565b8114620003f057600080fd5b50565b6000815190506200040481620003d9565b92915050565b600060208284031215620004235762000422620003a0565b5b60006200043384828501620003f3565b91505092915050565b600081905092915050565b7f75696e7432353600000000000000000000000000000000000000000000000000600082015250565b60006200047f6007836200043c565b91506200048c8262000447565b600782019050919050565b6000620004a48262000470565b9150819050919050565b7f626f6f6c00000000000000000000000000000000000000000000000000000000600082015250565b6000620004e66004836200043c565b9150620004f382620004ae565b600482019050919050565b60006200050b82620004d7565b9150819050919050565b7f6279746573333200000000000000000000000000000000000000000000000000600082015250565b60006200054d6007836200043c565b91506200055a8262000515565b600782019050919050565b600062000572826200053e565b9150819050919050565b7f6279746573000000000000000000000000000000000000000000000000000000600082015250565b6000620005b46005836200043c565b9150620005c1826200057c565b600582019050919050565b6000620005d982620005a5565b9150819050919050565b7f737472696e67416e64626f6f6c00000000000000000000000000000000000000600082015250565b60006200061b600d836200043c565b91506200062882620005e3565b600d82019050919050565b600062000640826200060c565b9150819050919050565b6200065581620003c5565b82525050565b60006020820190506200067260008301846200064a565b92915050565b608051612a9c620006e16000396000818161039f0152818161050f0152818161061e015281816106f5015281816107cc015281816109470152818161099e01528181610b2f01528181610bff01528181610cd601528181610e320152610f280152612a9c6000f3fe608060405234801561001057600080fd5b50600436106101215760003560e01c8063513bd64d116100ad57806390d95efc1161007157806390d95efc146102f9578063e3ca105d14610315578063f2fde38b14610345578063f40b4def14610361578063feac766d1461037d57610121565b8063513bd64d146102795780636dfe4e4c14610297578063715018a6146102b557806377f262ea146102bf5780638da5cb5b146102db57610121565b80631b30a0b7116100f45780631b30a0b7146101be5780632c33875a146101ee5780633b2bcbf11461020d5780633c54126f1461022b57806346742eff1461025b57610121565b80630e2c871f14610126578063148b424e14610142578063171f4db51461017257806319e2cd2f146101a2575b600080fd5b610140600480360381019061013b9190611950565b61039b565b005b61015c60048036038101906101579190611a1e565b610441565b6040516101699190611acc565b60405180910390f35b61018c60048036038101906101879190611ae7565b6105e4565b6040516101999190611acc565b60405180910390f35b6101bc60048036038101906101b79190611bc8565b6106f1565b005b6101d860048036038101906101d39190611ae7565b610797565b6040516101e59190611acc565b60405180910390f35b6101f661089e565b604051610204929190611cb2565b60405180910390f35b610215610945565b6040516102229190611d61565b60405180910390f35b61024560048036038101906102409190611ae7565b610969565b6040516102529190611acc565b60405180910390f35b610263610a70565b6040516102709190611dd1565b60405180910390f35b610281610afe565b60405161028e9190611e02565b60405180910390f35b61029f610b04565b6040516102ac9190611e1d565b60405180910390f35b6102bd610b17565b005b6102d960048036038101906102d49190611e38565b610b2b565b005b6102e3610bd1565b6040516102f09190611e99565b60405180910390f35b610313600480360381019061030e9190611eb4565b610bfb565b005b61032f600480360381019061032a9190611ae7565b610ca1565b60405161033c9190611acc565b60405180910390f35b61035f600480360381019061035a9190611f20565b610da8565b005b61037b60048036038101906103769190611f4d565b610e2e565b005b610385610ed4565b6040516103929190611acc565b60405180910390f35b60007f000000000000000000000000000000000000000000000000000000000000000090508073ffffffffffffffffffffffffffffffffffffffff163373ffffffffffffffffffffffffffffffffffffffff16146104325733816040517f1cf993f4000000000000000000000000000000000000000000000000000000008152600401610429929190611f8d565b60405180910390fd5b61043c8383610eda565b505050565b6000806040516020016104539061200d565b60405160208183030381529060405280519060200120905060006104778683610f1a565b90506104c36040518060400160405280600481526020017f66726f6d000000000000000000000000000000000000000000000000000000008152508683610f809092919063ffffffff16565b61050d6040518060400160405280600281526020017f746f0000000000000000000000000000000000000000000000000000000000008152508583610f809092919063ffffffff16565b7f000000000000000000000000000000000000000000000000000000000000000073ffffffffffffffffffffffffffffffffffffffff1663db750a2d88836040518363ffffffff1660e01b81526004016105689291906121b8565b6020604051808303816000875af1158015610587573d6000803e3d6000fd5b505050506040513d601f19601f820116820180604052508101906105ab91906121fd565b9250827f2f9bce8ee79bb2471696219a14b13ee8fc00b505941b718e981d7dcc58c8a61060405160405180910390a25050949350505050565b6000806040516020016105f690612276565b604051602081830303815290604052805190602001209050600061061a8483610f1a565b90507f000000000000000000000000000000000000000000000000000000000000000073ffffffffffffffffffffffffffffffffffffffff1663db750a2d86836040518363ffffffff1660e01b81526004016106779291906121b8565b6020604051808303816000875af1158015610696573d6000803e3d6000fd5b505050506040513d601f19601f820116820180604052508101906106ba91906121fd565b9250827fbe404c45b6b74531e0c631fa8236b0b2abbf5f24b37ee4f83b77e99b1e13aeb360405160405180910390a2505092915050565b60007f000000000000000000000000000000000000000000000000000000000000000090508073ffffffffffffffffffffffffffffffffffffffff163373ffffffffffffffffffffffffffffffffffffffff16146107885733816040517f1cf993f400000000000000000000000000000000000000000000000000000000815260040161077f929190611f8d565b60405180910390fd5b6107928383610fb3565b505050565b6000806107c8836040516020016107ad906122d7565b60405160208183030381529060405280519060200120610f1a565b90507f000000000000000000000000000000000000000000000000000000000000000073ffffffffffffffffffffffffffffffffffffffff1663db750a2d85836040518363ffffffff1660e01b81526004016108259291906121b8565b6020604051808303816000875af1158015610844573d6000803e3d6000fd5b505050506040513d601f19601f8201168201806040525081019061086891906121fd565b9150817f06a2b4387d37a456e7f9fcaf47b429a6079f5227f0788867c8920370872284d860405160405180910390a25092915050565b60068060000180546108af9061231b565b80601f01602080910402602001604051908101604052809291908181526020018280546108db9061231b565b80156109285780601f106108fd57610100808354040283529160200191610928565b820191906000526020600020905b81548152906001019060200180831161090b57829003601f168201915b5050505050908060010160009054906101000a900460ff16905082565b7f000000000000000000000000000000000000000000000000000000000000000081565b60008061099a8360405160200161097f90612398565b60405160208183030381529060405280519060200120610f1a565b90507f000000000000000000000000000000000000000000000000000000000000000073ffffffffffffffffffffffffffffffffffffffff1663db750a2d85836040518363ffffffff1660e01b81526004016109f79291906121b8565b6020604051808303816000875af1158015610a16573d6000803e3d6000fd5b505050506040513d601f19601f82011682018060405250810190610a3a91906121fd565b9150817f867c522a119b99440246a0577cfbd60ded830a28eb054fe6608c75b445f329e160405160405180910390a25092915050565b60058054610a7d9061231b565b80601f0160208091040260200160405190810160405280929190818152602001828054610aa99061231b565b8015610af65780601f10610acb57610100808354040283529160200191610af6565b820191906000526020600020905b815481529060010190602001808311610ad957829003601f168201915b505050505081565b60045481565b600360009054906101000a900460ff1681565b610b1f610fc7565b610b29600061104e565b565b60007f000000000000000000000000000000000000000000000000000000000000000090508073ffffffffffffffffffffffffffffffffffffffff163373ffffffffffffffffffffffffffffffffffffffff1614610bc25733816040517f1cf993f4000000000000000000000000000000000000000000000000000000008152600401610bb9929190611f8d565b60405180910390fd5b610bcc8383611114565b505050565b6000600160009054906101000a900473ffffffffffffffffffffffffffffffffffffffff16905090565b60007f000000000000000000000000000000000000000000000000000000000000000090508073ffffffffffffffffffffffffffffffffffffffff163373ffffffffffffffffffffffffffffffffffffffff1614610c925733816040517f1cf993f4000000000000000000000000000000000000000000000000000000008152600401610c89929190611f8d565b60405180910390fd5b610c9c838361111f565b505050565b600080610cd283604051602001610cb7906123f9565b60405160208183030381529060405280519060200120610f1a565b90507f000000000000000000000000000000000000000000000000000000000000000073ffffffffffffffffffffffffffffffffffffffff1663db750a2d85836040518363ffffffff1660e01b8152600401610d2f9291906121b8565b6020604051808303816000875af1158015610d4e573d6000803e3d6000fd5b505050506040513d601f19601f82011682018060405250810190610d7291906121fd565b9150817f06a2b4387d37a456e7f9fcaf47b429a6079f5227f0788867c8920370872284d860405160405180910390a25092915050565b610db0610fc7565b600073ffffffffffffffffffffffffffffffffffffffff168173ffffffffffffffffffffffffffffffffffffffff1603610e225760006040517f1e4fbdf7000000000000000000000000000000000000000000000000000000008152600401610e199190611e99565b60405180910390fd5b610e2b8161104e565b50565b60007f000000000000000000000000000000000000000000000000000000000000000090508073ffffffffffffffffffffffffffffffffffffffff163373ffffffffffffffffffffffffffffffffffffffff1614610ec55733816040517f1cf993f4000000000000000000000000000000000000000000000000000000008152600401610ebc929190611f8d565b60405180910390fd5b610ecf838361113d565b505050565b60025481565b8060066000820151816000019081610ef291906125b0565b5060208201518160010160006101000a81548160ff0219169083151502179055509050505050565b610f2261168b565b610f78837f000000000000000000000000000000000000000000000000000000000000000060008086815260200190815260200160002060009054906101000a900460e01b84611148909392919063ffffffff16565b905092915050565b610f978284608001516111f890919063ffffffff16565b610fae8184608001516111f890919063ffffffff16565b505050565b8060059081610fc291906126dd565b505050565b610fcf61121d565b73ffffffffffffffffffffffffffffffffffffffff16610fed610bd1565b73ffffffffffffffffffffffffffffffffffffffff161461104c5761101061121d565b6040517f118cdaa70000000000000000000000000000000000000000000000000000000081526004016110439190611e99565b60405180910390fd5b565b6000600160009054906101000a900473ffffffffffffffffffffffffffffffffffffffff16905081600160006101000a81548173ffffffffffffffffffffffffffffffffffffffff021916908373ffffffffffffffffffffffffffffffffffffffff1602179055508173ffffffffffffffffffffffffffffffffffffffff168173ffffffffffffffffffffffffffffffffffffffff167f8be0079c531659141344cd1fd0a4f28419497f9722a3daafe3b4186f6b6457e060405160405180910390a35050565b806002819055505050565b80600360006101000a81548160ff0219169083151502179055505050565b806004819055505050565b61115061168b565b6111608560800151610100611225565b508385600001818152505082856020019073ffffffffffffffffffffffffffffffffffffffff16908173ffffffffffffffffffffffffffffffffffffffff16815250508185604001907bffffffffffffffffffffffffffffffffffffffffffffffffffffffff191690817bffffffffffffffffffffffffffffffffffffffffffffffffffffffff191681525050849050949350505050565b611205826003835161128f565b611218818361141490919063ffffffff16565b505050565b600033905090565b61122d6116f8565b600060208361123c91906127de565b146112685760208261124e91906127de565b602061125a919061283e565b826112659190612872565b91505b81836020018181525050604051808452600081528281016020016040525082905092915050565b60178167ffffffffffffffff16116112c6576112c08160058460ff16901b60ff16178461143690919063ffffffff16565b5061140f565b60ff8167ffffffffffffffff161161131c576112f5601860058460ff16901b178461143690919063ffffffff16565b506113168167ffffffffffffffff166001856114569092919063ffffffff16565b5061140e565b61ffff8167ffffffffffffffff16116113735761134c601960058460ff16901b178461143690919063ffffffff16565b5061136d8167ffffffffffffffff166002856114569092919063ffffffff16565b5061140d565b63ffffffff8167ffffffffffffffff16116113cc576113a5601a60058460ff16901b178461143690919063ffffffff16565b506113c68167ffffffffffffffff166004856114569092919063ffffffff16565b5061140c565b6113e9601b60058460ff16901b178461143690919063ffffffff16565b5061140a8167ffffffffffffffff166008856114569092919063ffffffff16565b505b5b5b5b505050565b61141c6116f8565b61142e83846000015151848551611478565b905092915050565b61143e6116f8565b61144e8384600001515184611567565b905092915050565b61145e6116f8565b61146f8485600001515185856115bd565b90509392505050565b6114806116f8565b825182111561148e57600080fd5b8460200151828561149f9190612872565b11156114d4576114d38560026114c4886020015188876114bf9190612872565b61164b565b6114ce91906128a6565b611667565b5b6000808651805187602083010193508088870111156114f35787860182525b60208701925050505b6020841061153a57805182526020826115159190612872565b91506020816115249190612872565b9050602084611533919061283e565b93506114fc565b60006001856020036101000a03905080198251168184511681811785525050508692505050949350505050565b61156f6116f8565b8360200151831061159557611594846002866020015161158f91906128a6565b611667565b5b835180516020858301018481538186036115b0576001820183525b5050508390509392505050565b6115c56116f8565b846020015184836115d69190612872565b11156115fe576115fd85600286856115ee9190612872565b6115f891906128a6565b611667565b5b60006001836101006116109190612a1b565b61161a919061283e565b9050855183868201018583198251161781528151858801111561163d5784870182525b505085915050949350505050565b60008183111561165d57829050611661565b8190505b92915050565b60008260000151905061167a8383611225565b506116858382611414565b50505050565b6040518060a0016040528060008019168152602001600073ffffffffffffffffffffffffffffffffffffffff16815260200160007bffffffffffffffffffffffffffffffffffffffffffffffffffffffff19168152602001600081526020016116f26116f8565b81525090565b604051806040016040528060608152602001600081525090565b6000604051905090565b600080fd5b600080fd5b6000819050919050565b61173981611726565b811461174457600080fd5b50565b60008135905061175681611730565b92915050565b600080fd5b6000601f19601f8301169050919050565b7f4e487b7100000000000000000000000000000000000000000000000000000000600052604160045260246000fd5b6117aa82611761565b810181811067ffffffffffffffff821117156117c9576117c8611772565b5b80604052505050565b60006117dc611712565b90506117e882826117a1565b919050565b600080fd5b600080fd5b600080fd5b600067ffffffffffffffff82111561181757611816611772565b5b61182082611761565b9050602081019050919050565b82818337600083830152505050565b600061184f61184a846117fc565b6117d2565b90508281526020810184848401111561186b5761186a6117f7565b5b61187684828561182d565b509392505050565b600082601f830112611893576118926117f2565b5b81356118a384826020860161183c565b91505092915050565b60008115159050919050565b6118c1816118ac565b81146118cc57600080fd5b50565b6000813590506118de816118b8565b92915050565b6000604082840312156118fa576118f961175c565b5b61190460406117d2565b9050600082013567ffffffffffffffff811115611924576119236117ed565b5b6119308482850161187e565b6000830152506020611944848285016118cf565b60208301525092915050565b600080604083850312156119675761196661171c565b5b600061197585828601611747565b925050602083013567ffffffffffffffff81111561199657611995611721565b5b6119a2858286016118e4565b9150509250929050565b600063ffffffff82169050919050565b6119c5816119ac565b81146119d057600080fd5b50565b6000813590506119e2816119bc565b92915050565b6000819050919050565b6119fb816119e8565b8114611a0657600080fd5b50565b600081359050611a18816119f2565b92915050565b60008060008060808587031215611a3857611a3761171c565b5b6000611a46878288016119d3565b9450506020611a5787828801611a09565b935050604085013567ffffffffffffffff811115611a7857611a77611721565b5b611a848782880161187e565b925050606085013567ffffffffffffffff811115611aa557611aa4611721565b5b611ab18782880161187e565b91505092959194509250565b611ac681611726565b82525050565b6000602082019050611ae16000830184611abd565b92915050565b60008060408385031215611afe57611afd61171c565b5b6000611b0c858286016119d3565b9250506020611b1d85828601611a09565b9150509250929050565b600067ffffffffffffffff821115611b4257611b41611772565b5b611b4b82611761565b9050602081019050919050565b6000611b6b611b6684611b27565b6117d2565b905082815260208101848484011115611b8757611b866117f7565b5b611b9284828561182d565b509392505050565b600082601f830112611baf57611bae6117f2565b5b8135611bbf848260208601611b58565b91505092915050565b60008060408385031215611bdf57611bde61171c565b5b6000611bed85828601611747565b925050602083013567ffffffffffffffff811115611c0e57611c0d611721565b5b611c1a85828601611b9a565b9150509250929050565b600081519050919050565b600082825260208201905092915050565b60005b83811015611c5e578082015181840152602081019050611c43565b60008484015250505050565b6000611c7582611c24565b611c7f8185611c2f565b9350611c8f818560208601611c40565b611c9881611761565b840191505092915050565b611cac816118ac565b82525050565b60006040820190508181036000830152611ccc8185611c6a565b9050611cdb6020830184611ca3565b9392505050565b600073ffffffffffffffffffffffffffffffffffffffff82169050919050565b6000819050919050565b6000611d27611d22611d1d84611ce2565b611d02565b611ce2565b9050919050565b6000611d3982611d0c565b9050919050565b6000611d4b82611d2e565b9050919050565b611d5b81611d40565b82525050565b6000602082019050611d766000830184611d52565b92915050565b600081519050919050565b600082825260208201905092915050565b6000611da382611d7c565b611dad8185611d87565b9350611dbd818560208601611c40565b611dc681611761565b840191505092915050565b60006020820190508181036000830152611deb8184611d98565b905092915050565b611dfc816119e8565b82525050565b6000602082019050611e176000830184611df3565b92915050565b6000602082019050611e326000830184611ca3565b92915050565b60008060408385031215611e4f57611e4e61171c565b5b6000611e5d85828601611747565b9250506020611e6e85828601611747565b9150509250929050565b6000611e8382611ce2565b9050919050565b611e9381611e78565b82525050565b6000602082019050611eae6000830184611e8a565b92915050565b60008060408385031215611ecb57611eca61171c565b5b6000611ed985828601611747565b9250506020611eea858286016118cf565b9150509250929050565b611efd81611e78565b8114611f0857600080fd5b50565b600081359050611f1a81611ef4565b92915050565b600060208284031215611f3657611f3561171c565b5b6000611f4484828501611f0b565b91505092915050565b60008060408385031215611f6457611f6361171c565b5b6000611f7285828601611747565b9250506020611f8385828601611a09565b9150509250929050565b6000604082019050611fa26000830185611e8a565b611faf6020830184611e8a565b9392505050565b600081905092915050565b7f75696e7432353600000000000000000000000000000000000000000000000000600082015250565b6000611ff7600783611fb6565b915061200282611fc1565b600782019050919050565b600061201882611fea565b9150819050919050565b600061203d612038612033846119ac565b611d02565b611726565b9050919050565b61204d81612022565b82525050565b61205c816119e8565b82525050565b61206b81611e78565b82525050565b60007fffffffff0000000000000000000000000000000000000000000000000000000082169050919050565b6120a681612071565b82525050565b6120b581611726565b82525050565b600082825260208201905092915050565b60006120d782611d7c565b6120e181856120bb565b93506120f1818560208601611c40565b6120fa81611761565b840191505092915050565b6000604083016000830151848203600086015261212282826120cc565b915050602083015161213760208601826120ac565b508091505092915050565b600060a08301600083015161215a6000860182612053565b50602083015161216d6020860182612062565b506040830151612180604086018261209d565b50606083015161219360608601826120ac565b50608083015184820360808601526121ab8282612105565b9150508091505092915050565b60006040820190506121cd6000830185612044565b81810360208301526121df8184612142565b90509392505050565b6000815190506121f781611730565b92915050565b6000602082840312156122135761221261171c565b5b6000612221848285016121e8565b91505092915050565b7f626f6f6c00000000000000000000000000000000000000000000000000000000600082015250565b6000612260600483611fb6565b915061226b8261222a565b600482019050919050565b600061228182612253565b9150819050919050565b7f6279746573000000000000000000000000000000000000000000000000000000600082015250565b60006122c1600583611fb6565b91506122cc8261228b565b600582019050919050565b60006122e2826122b4565b9150819050919050565b7f4e487b7100000000000000000000000000000000000000000000000000000000600052602260045260246000fd5b6000600282049050600182168061233357607f821691505b602082108103612346576123456122ec565b5b50919050565b7f6279746573333200000000000000000000000000000000000000000000000000600082015250565b6000612382600783611fb6565b915061238d8261234c565b600782019050919050565b60006123a382612375565b9150819050919050565b7f737472696e67416e64626f6f6c00000000000000000000000000000000000000600082015250565b60006123e3600d83611fb6565b91506123ee826123ad565b600d82019050919050565b6000612404826123d6565b9150819050919050565b60008190508160005260206000209050919050565b60006020601f8301049050919050565b600082821b905092915050565b6000600883026124707fffffffffffffffffffffffffffffffffffffffffffffffffffffffffffffffff82612433565b61247a8683612433565b95508019841693508086168417925050509392505050565b60006124ad6124a86124a384611726565b611d02565b611726565b9050919050565b6000819050919050565b6124c783612492565b6124db6124d3826124b4565b848454612440565b825550505050565b600090565b6124f06124e3565b6124fb8184846124be565b505050565b5b8181101561251f576125146000826124e8565b600181019050612501565b5050565b601f821115612564576125358161240e565b61253e84612423565b8101602085101561254d578190505b61256161255985612423565b830182612500565b50505b505050565b600082821c905092915050565b600061258760001984600802612569565b1980831691505092915050565b60006125a08383612576565b9150826002028217905092915050565b6125b982611c24565b67ffffffffffffffff8111156125d2576125d1611772565b5b6125dc825461231b565b6125e7828285612523565b600060209050601f83116001811461261a5760008415612608578287015190505b6126128582612594565b86555061267a565b601f1984166126288661240e565b60005b828110156126505784890151825560018201915060208501945060208101905061262b565b8683101561266d5784890151612669601f891682612576565b8355505b6001600288020188555050505b505050505050565b60008190508160005260206000209050919050565b601f8211156126d8576126a981612682565b6126b284612423565b810160208510156126c1578190505b6126d56126cd85612423565b830182612500565b50505b505050565b6126e682611d7c565b67ffffffffffffffff8111156126ff576126fe611772565b5b612709825461231b565b612714828285612697565b600060209050601f8311600181146127475760008415612735578287015190505b61273f8582612594565b8655506127a7565b601f19841661275586612682565b60005b8281101561277d57848901518255600182019150602085019450602081019050612758565b8683101561279a5784890151612796601f891682612576565b8355505b6001600288020188555050505b505050505050565b7f4e487b7100000000000000000000000000000000000000000000000000000000600052601260045260246000fd5b60006127e982611726565b91506127f483611726565b925082612804576128036127af565b5b828206905092915050565b7f4e487b7100000000000000000000000000000000000000000000000000000000600052601160045260246000fd5b600061284982611726565b915061285483611726565b925082820390508181111561286c5761286b61280f565b5b92915050565b600061287d82611726565b915061288883611726565b92508282019050808211156128a05761289f61280f565b5b92915050565b60006128b182611726565b91506128bc83611726565b92508282026128ca81611726565b915082820484148315176128e1576128e061280f565b5b5092915050565b60008160011c9050919050565b6000808291508390505b600185111561293f5780860481111561291b5761291a61280f565b5b600185161561292a5780820291505b8081029050612938856128e8565b94506128ff565b94509492505050565b6000826129585760019050612a14565b816129665760009050612a14565b816001811461297c5760028114612986576129b5565b6001915050612a14565b60ff8411156129985761299761280f565b5b8360020a9150848211156129af576129ae61280f565b5b50612a14565b5060208310610133831016604e8410600b84101617156129ea5782820a9050838111156129e5576129e461280f565b5b612a14565b6129f784848460016128f5565b92509050818404811115612a0e57612a0d61280f565b5b81810290505b9392505050565b6000612a2682611726565b9150612a3183611726565b9250612a5e7fffffffffffffffffffffffffffffffffffffffffffffffffffffffffffffffff8484612948565b90509291505056fea264697066735822122021b8fc4447d6275ab27c9f20a164e4814e6b088a52dd9b932e622a69b39b4c5164736f6c63430008140033",
  "devdoc": {
    "errors": {
      "OwnableInvalidOwner(address)": [
        {
          "details": "The owner is not a valid owner account. (eg. `address(0)`)"
        }
      ],
      "OwnableUnauthorizedAccount(address)": [
        {
          "details": "The caller account is not authorized to perform an operation."
        }
      ]
    },
    "kind": "dev",
    "methods": {
      "owner()": {
        "details": "Returns the address of the current owner."
      },
      "renounceOwnership()": {
        "details": "Leaves the contract without owner. It will not be possible to call `onlyOwner` functions. Can only be called by the current owner. NOTE: Renouncing ownership will leave the contract without an owner, thereby disabling any functionality that is only available to the owner."
      },
      "transferOwnership(address)": {
        "details": "Transfers ownership of the contract to a new account (`newOwner`). Can only be called by the current owner."
      }
    },
    "version": 1
  },
  "userdoc": {
    "kind": "user",
    "methods": {},
    "version": 1
  },
  "storageLayout": {
    "storage": [
      {
        "astId": 277,
        "contract": "src/mock/MockADCSConsumer.sol:MockADCSConsumer",
        "label": "sTypeIdToFunctionSelector",
        "offset": 0,
        "slot": "0",
        "type": "t_mapping(t_bytes32,t_bytes4)"
      },
      {
        "astId": 8,
        "contract": "src/mock/MockADCSConsumer.sol:MockADCSConsumer",
        "label": "_owner",
        "offset": 0,
        "slot": "1",
        "type": "t_address"
      },
      {
        "astId": 1918,
        "contract": "src/mock/MockADCSConsumer.sol:MockADCSConsumer",
        "label": "lastUint256",
        "offset": 0,
        "slot": "2",
        "type": "t_uint256"
      },
      {
        "astId": 1920,
        "contract": "src/mock/MockADCSConsumer.sol:MockADCSConsumer",
        "label": "lastBool",
        "offset": 0,
        "slot": "3",
        "type": "t_bool"
      },
      {
        "astId": 1922,
        "contract": "src/mock/MockADCSConsumer.sol:MockADCSConsumer",
        "label": "lastBytes32",
        "offset": 0,
        "slot": "4",
        "type": "t_bytes32"
      },
      {
        "astId": 1924,
        "contract": "src/mock/MockADCSConsumer.sol:MockADCSConsumer",
        "label": "lastBytes",
        "offset": 0,
        "slot": "5",
        "type": "t_bytes_storage"
      },
      {
        "astId": 1927,
        "contract": "src/mock/MockADCSConsumer.sol:MockADCSConsumer",
        "label": "lastestMemeCoin",
        "offset": 0,
        "slot": "6",
        "type": "t_struct(StringAndBool)267_storage"
      }
    ],
    "types": {
      "t_address": {
        "encoding": "inplace",
        "label": "address",
        "numberOfBytes": "20"
      },
      "t_bool": {
        "encoding": "inplace",
        "label": "bool",
        "numberOfBytes": "1"
      },
      "t_bytes32": {
        "encoding": "inplace",
        "label": "bytes32",
        "numberOfBytes": "32"
      },
      "t_bytes4": {
        "encoding": "inplace",
        "label": "bytes4",
        "numberOfBytes": "4"
      },
      "t_bytes_storage": {
        "encoding": "bytes",
        "label": "bytes",
        "numberOfBytes": "32"
      },
      "t_mapping(t_bytes32,t_bytes4)": {
        "encoding": "mapping",
        "key": "t_bytes32",
        "label": "mapping(bytes32 => bytes4)",
        "numberOfBytes": "32",
        "value": "t_bytes4"
      },
      "t_string_storage": {
        "encoding": "bytes",
        "label": "string",
        "numberOfBytes": "32"
      },
      "t_struct(StringAndBool)267_storage": {
        "encoding": "inplace",
        "label": "struct ADCSConsumerBase.StringAndBool",
        "members": [
          {
            "astId": 264,
            "contract": "src/mock/MockADCSConsumer.sol:MockADCSConsumer",
            "label": "name",
            "offset": 0,
            "slot": "0",
            "type": "t_string_storage"
          },
          {
            "astId": 266,
            "contract": "src/mock/MockADCSConsumer.sol:MockADCSConsumer",
            "label": "response",
            "offset": 0,
            "slot": "1",
            "type": "t_bool"
          }
        ],
        "numberOfBytes": "64"
      },
      "t_uint256": {
        "encoding": "inplace",
        "label": "uint256",
        "numberOfBytes": "32"
      }
    }
  }
}